:100000000C9461000C9473000C9473000C947300B6
:100010000C9473000C9473000C9473000C94730094
:100020000C9473000C9473000C9473000C94730084
:100030000C9473000C9473000C9473000C94730074
:100040000C9478010C9473000C9473000C9473005E
:100050000C9473000C9473000C9473000C94730054
:100060000C9473000C94730000000000240027001F
:100070002A0000000000250028002B0000000000DE
:1000800023002600290004040404040404040202DA
:100090000202020203030303030301020408102007
:1000A0004080010204081020010204081020000012
:1000B0000008000201000003040700000000000027
:1000C000000011241FBECFEFD8E0DEBFCDBF21E07E
:1000D000A0E0B1E001C01D92AB30B207E1F70E9491
:1000E000C2010C9411030C940000833081F028F4B9
:1000F000813099F08230A9F008958730A9F08830D6
:10010000C9F08430B1F4809180008F7D03C080916C
:1001100080008F7780938000089584B58F7784BDA9
:10012000089584B58F7DFBCF8091B0008F77809349
:10013000B00008958091B0008F7DF9CFCF93DF9309
:10014000EAEBF0E08491E6EAF0E0D491E2E9F0E055
:10015000C491CC23A1F081110E947500EC2FF0E036
:10016000EE0FFF1FE458FF4FA591B491EC91ED23E2
:1001700081E090E009F480E0DF91CF91089580E084
:1001800090E0FACF1F93CF93DF93282F30E0F9014F
:10019000E255FF4F8491F901E656FF4FD491F901E2
:1001A000EA57FF4FC491CC23A9F0162F81110E946A
:1001B0007500EC2FF0E0EE0FFF1FEE58FF4FA591FA
:1001C000B4918FB7F894EC91111108C0D095DE234B
:1001D000DC938FBFDF91CF911F910895DE2BF8CF75
:1001E000CF93DF9390E0FC01E656FF4F24918A57AE
:1001F0009F4FFC0184918823D1F090E0880F991FD4
:10020000FC01E859FF4FA591B491FC01EE58FF4F56
:10021000C591D491623071F49FB7F8943C91822FCC
:10022000809583238C93E8812E2B28839FBFDF91B9
:10023000CF9108958FB7F894EC912E2B2C938FBF0C
:10024000F6CF3FB7F8948091070190910801A091F3
:100250000901B0910A0126B5A89B05C02F3F19F0EE
:100260000196A11DB11D3FBFBA2FA92F982F882736
:10027000BC01CD01620F711D811D911D42E0660F11
:10028000771F881F991F4A95D1F708958F929F92E3
:10029000AF92BF92CF92DF92EF92FF924B015C013F
:1002A0000E9421016B017C010E9421016C197D09D2
:1002B0008E099F09683E734081059105A8F321E0EE
:1002C000821A9108A108B10888EEC80E83E0D81EF2
:1002D000E11CF11C81149104A104B10429F7FF90E1
:1002E000EF90DF90CF90BF90AF909F908F90089548
:1002F0001F920F920FB60F9211242F933F938F935B
:100300009F93AF93BF938091030190910401A091BB
:100310000501B09106013091020123E0230F2D3732
:1003200058F50196A11DB11D209302018093030190
:1003300090930401A0930501B093060180910701F9
:1003400090910801A0910901B0910A010196A11DA7
:10035000B11D8093070190930801A0930901B09308
:100360000A01BF91AF919F918F913F912F910F9073
:100370000FBE0F901F90189526E8230F0296A11D1F
:10038000B11DD2CF789484B5826084BD84B581607C
:1003900084BD85B5826085BD85B5816085BD809150
:1003A0006E00816080936E001092810080918100C8
:1003B00082608093810080918100816080938100C0
:1003C000809180008160809380008091B100846082
:1003D0008093B1008091B00081608093B0008091E3
:1003E0007A00846080937A0080917A0082608093A2
:1003F0007A0080917A00816080937A0080917A00FF
:10040000806880937A001092C10062E08CE00E94C4
:10041000F00061E081E00E94F00061E082E00E9473
:10042000F00061E083E00E94F00061E084E00E945F
:10043000F00061E085E00E94F00061E086E00E944B
:10044000F00061E087E00E94F00000E010E00E9410
:100450009E00892B09F0D8C0C0910001D091010104
:10046000CA30D10558F5FE01E85CFD4F0C940B0332
:10047000420279028F02A902BB02CD02DB02F10225
:10048000F302F90260E081E00E94C20060E082E0D5
:100490000E94C20060E083E00E94C20060E084E04D
:1004A0000E94C20060E085E00E94C20060E086E039
:1004B0000E94C20061E087E00E94C20068EC70E028
:1004C00080E090E00E9446012196CA30D1050CF0F0
:1004D00096C0D0930101C09300010E949E00892B19
:1004E00009F092C06AE070E080E090E00E9446016E
:1004F000F4CF61E081E00E94C20060E082E00E94EF
:10050000C20060E083E00E94C20061E084E00E94DB
:10051000C20061E085E00E94C20061E0C8CF60E0F7
:1005200081E00E94C20060E082E00E94C20061E0BF
:1005300083E00E94C20060E084E00E94C20060E0AC
:1005400085E00E94C20061E086E00E94C20060E097
:10055000B2CF60E081E00E94C20060E082E00E94D1
:10056000C20060E083E00E94C20060E084E00E947C
:10057000C20061E0E5CF61E081E00E94C20060E07E
:1005800082E00E94C20060E083E00E94C20061E05D
:1005900084E00E94C20061E01FC060E081E00E9430
:1005A000C20061E082E00E94C20060E083E00E943D
:1005B000C20060E0EDCF60E081E00E94C20061E037
:1005C00082E00E94C20060E083E00E94C20060E01E
:1005D00084E00E94C20060E085E00E94C20060E00A
:1005E000B3CF60E087CF60E081E00E94C20060E0AE
:1005F000E7CF60E081E00E94C20060E0D3CF1092BC
:1006000001011092000169CF0115110509F41FCFF6
:100610000E9400001CCFEE0FFF1F0590F491E02D0B
:060620000994F894FFCFDD
:00000001FF
